{
  "contractName": "Lottery",
  "abi": [
    {
      "inputs": [],
      "stateMutability": "nonpayable",
      "type": "constructor"
    },
    {
      "anonymous": false,
      "inputs": [
        {
          "indexed": true,
          "internalType": "address",
          "name": "player",
          "type": "address"
        },
        {
          "indexed": false,
          "internalType": "uint256",
          "name": "amount",
          "type": "uint256"
        }
      ],
      "name": "PlayerEntered",
      "type": "event"
    },
    {
      "inputs": [],
      "name": "entryAmount",
      "outputs": [
        {
          "internalType": "uint256",
          "name": "",
          "type": "uint256"
        }
      ],
      "stateMutability": "view",
      "type": "function",
      "constant": true
    },
    {
      "inputs": [],
      "name": "owner",
      "outputs": [
        {
          "internalType": "address",
          "name": "",
          "type": "address"
        }
      ],
      "stateMutability": "view",
      "type": "function",
      "constant": true
    },
    {
      "inputs": [
        {
          "internalType": "uint256",
          "name": "",
          "type": "uint256"
        }
      ],
      "name": "players",
      "outputs": [
        {
          "internalType": "address payable",
          "name": "",
          "type": "address"
        }
      ],
      "stateMutability": "view",
      "type": "function",
      "constant": true
    },
    {
      "inputs": [],
      "name": "randomResult",
      "outputs": [
        {
          "internalType": "uint256",
          "name": "",
          "type": "uint256"
        }
      ],
      "stateMutability": "view",
      "type": "function",
      "constant": true
    },
    {
      "inputs": [],
      "name": "getRandomNumber",
      "outputs": [
        {
          "internalType": "uint256",
          "name": "",
          "type": "uint256"
        }
      ],
      "stateMutability": "view",
      "type": "function",
      "constant": true
    },
    {
      "inputs": [],
      "name": "getBalance",
      "outputs": [
        {
          "internalType": "uint256",
          "name": "",
          "type": "uint256"
        }
      ],
      "stateMutability": "view",
      "type": "function",
      "constant": true
    },
    {
      "inputs": [],
      "name": "getPlayers",
      "outputs": [
        {
          "internalType": "address payable[]",
          "name": "",
          "type": "address[]"
        }
      ],
      "stateMutability": "view",
      "type": "function",
      "constant": true
    },
    {
      "inputs": [],
      "name": "enter",
      "outputs": [],
      "stateMutability": "payable",
      "type": "function",
      "payable": true
    },
    {
      "inputs": [],
      "name": "pickWinner",
      "outputs": [],
      "stateMutability": "nonpayable",
      "type": "function"
    },
    {
      "inputs": [],
      "name": "payWinner",
      "outputs": [],
      "stateMutability": "nonpayable",
      "type": "function"
    }
  ],
  "bytecode": "0x6080604052662386f26fc1000060035534801561001b57600080fd5b50336000806101000a81548173ffffffffffffffffffffffffffffffffffffffff021916908373ffffffffffffffffffffffffffffffffffffffff160217905550610b9c8061006b6000396000f3fe6080604052600436106100915760003560e01c8063991def3c11610059578063991def3c14610159578063be71248a14610184578063dbdff2c11461019b578063e97dcb62146101c6578063f71d96cb146101d057610091565b806312065fe01461009657806342619f66146100c15780635d495aea146100ec5780638b5b9ccc146101035780638da5cb5b1461012e575b600080fd5b3480156100a257600080fd5b506100ab61020d565b6040516100b891906106d6565b60405180910390f35b3480156100cd57600080fd5b506100d6610215565b6040516100e391906106d6565b60405180910390f35b3480156100f857600080fd5b5061010161021b565b005b34801561010f57600080fd5b506101186102b9565b60405161012591906107e1565b60405180910390f35b34801561013a57600080fd5b50610143610347565b6040516101509190610824565b60405180910390f35b34801561016557600080fd5b5061016e61036b565b60405161017b91906106d6565b60405180910390f35b34801561019057600080fd5b50610199610371565b005b3480156101a757600080fd5b506101b06104f4565b6040516101bd91906106d6565b60405180910390f35b6101ce610548565b005b3480156101dc57600080fd5b506101f760048036038101906101f29190610870565b610640565b60405161020491906108ac565b60405180910390f35b600047905090565b60025481565b60008054906101000a900473ffffffffffffffffffffffffffffffffffffffff1673ffffffffffffffffffffffffffffffffffffffff163373ffffffffffffffffffffffffffffffffffffffff16146102a9576040517f08c379a00000000000000000000000000000000000000000000000000000000081526004016102a09061094a565b60405180910390fd5b6102b16104f4565b600281905550565b6060600180548060200260200160405190810160405280929190818152602001828054801561033d57602002820191906000526020600020905b8160009054906101000a900473ffffffffffffffffffffffffffffffffffffffff1673ffffffffffffffffffffffffffffffffffffffff16815260200190600101908083116102f3575b5050505050905090565b60008054906101000a900473ffffffffffffffffffffffffffffffffffffffff1681565b60035481565b60008054906101000a900473ffffffffffffffffffffffffffffffffffffffff1673ffffffffffffffffffffffffffffffffffffffff163373ffffffffffffffffffffffffffffffffffffffff16146103ff576040517f08c379a00000000000000000000000000000000000000000000000000000000081526004016103f69061094a565b60405180910390fd5b600060018054905011610447576040517f08c379a000000000000000000000000000000000000000000000000000000000815260040161043e906109b6565b60405180910390fd5b600060018054905060025461045c9190610a05565b90506001818154811061047257610471610a36565b5b9060005260206000200160009054906101000a900473ffffffffffffffffffffffffffffffffffffffff1673ffffffffffffffffffffffffffffffffffffffff166108fc479081150290604051600060405180830381858888f193505050501580156104e2573d6000803e3d6000fd5b50600160006104f1919061067f565b50565b60008060009054906101000a900473ffffffffffffffffffffffffffffffffffffffff164260405160200161052a929190610ace565b6040516020818303038152906040528051906020012060001c905090565b60035434101561058d576040517f08c379a000000000000000000000000000000000000000000000000000000000815260040161058490610b46565b60405180910390fd5b6001339080600181540180825580915050600190039060005260206000200160009091909190916101000a81548173ffffffffffffffffffffffffffffffffffffffff021916908373ffffffffffffffffffffffffffffffffffffffff1602179055503373ffffffffffffffffffffffffffffffffffffffff167fc16481c9484122696a660b57df0bf6839645c6b620cb1704ac2437de13be92253460405161063691906106d6565b60405180910390a2565b6001818154811061065057600080fd5b906000526020600020016000915054906101000a900473ffffffffffffffffffffffffffffffffffffffff1681565b508054600082559060005260206000209081019061069d91906106a0565b50565b5b808211156106b95760008160009055506001016106a1565b5090565b6000819050919050565b6106d0816106bd565b82525050565b60006020820190506106eb60008301846106c7565b92915050565b600081519050919050565b600082825260208201905092915050565b6000819050602082019050919050565b600073ffffffffffffffffffffffffffffffffffffffff82169050919050565b60006107488261071d565b9050919050565b6107588161073d565b82525050565b600061076a838361074f565b60208301905092915050565b6000602082019050919050565b600061078e826106f1565b61079881856106fc565b93506107a38361070d565b8060005b838110156107d45781516107bb888261075e565b97506107c683610776565b9250506001810190506107a7565b5085935050505092915050565b600060208201905081810360008301526107fb8184610783565b905092915050565b600061080e8261071d565b9050919050565b61081e81610803565b82525050565b60006020820190506108396000830184610815565b92915050565b600080fd5b61084d816106bd565b811461085857600080fd5b50565b60008135905061086a81610844565b92915050565b6000602082840312156108865761088561083f565b5b60006108948482850161085b565b91505092915050565b6108a68161073d565b82525050565b60006020820190506108c1600083018461089d565b92915050565b600082825260208201905092915050565b7f4f6e6c7920746865206f776e65722063616e2063616c6c20746869732066756e60008201527f6374696f6e000000000000000000000000000000000000000000000000000000602082015250565b60006109346025836108c7565b915061093f826108d8565b604082019050919050565b6000602082019050818103600083015261096381610927565b9050919050565b7f4e6f20706c617965727320696e207468652067616d6500000000000000000000600082015250565b60006109a06016836108c7565b91506109ab8261096a565b602082019050919050565b600060208201905081810360008301526109cf81610993565b9050919050565b7f4e487b7100000000000000000000000000000000000000000000000000000000600052601260045260246000fd5b6000610a10826106bd565b9150610a1b836106bd565b925082610a2b57610a2a6109d6565b5b828206905092915050565b7f4e487b7100000000000000000000000000000000000000000000000000000000600052603260045260246000fd5b60008160601b9050919050565b6000610a7d82610a65565b9050919050565b6000610a8f82610a72565b9050919050565b610aa7610aa282610803565b610a84565b82525050565b6000819050919050565b610ac8610ac3826106bd565b610aad565b82525050565b6000610ada8285610a96565b601482019150610aea8284610ab7565b6020820191508190509392505050565b7f496e73756666696369656e74204554482073656e740000000000000000000000600082015250565b6000610b306015836108c7565b9150610b3b82610afa565b602082019050919050565b60006020820190508181036000830152610b5f81610b23565b905091905056fea26469706673582212200cb47ecd7b43057e253818a26c87d48a3b87ededa89e18a8016af56cc4cbeaf564736f6c634300080b0033",
  "immutableReferences": {},
  "source": "// SPDX-License-Identifier: MIT\r\npragma solidity ^0.8.11;\r\n\r\ncontract Lottery {\r\n    address public owner;\r\n    address payable[] public players;\r\n    uint public randomResult;\r\n    uint public entryAmount = 0.01 ether; // Set the entry amount in the constructor\r\n\r\n    event PlayerEntered(address indexed player, uint amount);\r\n\r\n    constructor() {\r\n        owner = msg.sender;\r\n    }\r\n\r\n    function getRandomNumber() public view returns(uint) {\r\n        return uint(keccak256(abi.encodePacked(owner, block.timestamp)));\r\n    }\r\n\r\n    function getBalance() public view returns (uint) {\r\n        return address(this).balance;\r\n    }\r\n\r\n    function getPlayers() public view returns (address payable[] memory) {\r\n        return players;\r\n    }\r\n\r\n    function enter() public payable {\r\n        require(msg.value >= entryAmount, \"Insufficient ETH sent\");\r\n\r\n        // Address of the player entering the lottery\r\n        players.push(payable(msg.sender));\r\n\r\n        // Emit an event to log the player's entry\r\n        emit PlayerEntered(msg.sender, msg.value);\r\n    }\r\n\r\n    function pickWinner() public onlyOwner {\r\n        randomResult = getRandomNumber();\r\n    }\r\n\r\n    function payWinner() public onlyOwner {\r\n        require(players.length > 0, \"No players in the game\");\r\n\r\n        uint index = randomResult % players.length;\r\n        players[index].transfer(address(this).balance);\r\n\r\n        // Reset the state of the contract\r\n        delete players;\r\n    }\r\n\r\n    modifier onlyOwner() {\r\n        require(msg.sender == owner, \"Only the owner can call this function\");\r\n        _;\r\n    }\r\n}\r\n",
  "sourcePath": "C:\\Users\\Harsh\\Desktop\\GitUpload\\Lottery dApp Ethereum\\smart_contract\\contracts\\Lottery.sol",
  "compiler": {
    "name": "solc",
    "version": "0.8.11+commit.d7f03943.Emscripten.clang"
  },
  "schemaVersion": "3.4.14",
  "updatedAt": "2023-11-06T10:25:15.565Z",
  "networkType": "ethereum",
  "devdoc": {
    "kind": "dev",
    "methods": {},
    "version": 1
  },
  "userdoc": {
    "kind": "user",
    "methods": {},
    "version": 1
  }
}