{
  "contractName": "Lottery",
  "abi": [
    {
      "inputs": [],
      "stateMutability": "nonpayable",
      "type": "constructor"
    },
    {
      "inputs": [],
      "name": "manager",
      "outputs": [
        {
          "internalType": "address",
          "name": "",
          "type": "address"
        }
      ],
      "stateMutability": "view",
      "type": "function",
      "constant": true
    },
    {
      "inputs": [
        {
          "internalType": "uint256",
          "name": "",
          "type": "uint256"
        }
      ],
      "name": "players",
      "outputs": [
        {
          "internalType": "address",
          "name": "",
          "type": "address"
        }
      ],
      "stateMutability": "view",
      "type": "function",
      "constant": true
    },
    {
      "inputs": [],
      "name": "enter",
      "outputs": [],
      "stateMutability": "payable",
      "type": "function",
      "payable": true
    },
    {
      "inputs": [],
      "name": "getPlayers",
      "outputs": [
        {
          "internalType": "address[]",
          "name": "",
          "type": "address[]"
        }
      ],
      "stateMutability": "view",
      "type": "function",
      "constant": true
    },
    {
      "inputs": [],
      "name": "getBalance",
      "outputs": [
        {
          "internalType": "uint256",
          "name": "",
          "type": "uint256"
        }
      ],
      "stateMutability": "view",
      "type": "function",
      "constant": true
    },
    {
      "inputs": [],
      "name": "pickWinner",
      "outputs": [],
      "stateMutability": "nonpayable",
      "type": "function"
    }
  ],
  "bytecode": "0x608060405234801561001057600080fd5b50336000806101000a81548173ffffffffffffffffffffffffffffffffffffffff021916908373ffffffffffffffffffffffffffffffffffffffff160217905550610ba0806100606000396000f3fe6080604052600436106100555760003560e01c806312065fe01461005a578063481c6a75146100855780635d495aea146100b05780638b5b9ccc146100c7578063e97dcb62146100f2578063f71d96cb146100fc575b600080fd5b34801561006657600080fd5b5061006f610139565b60405161007c9190610604565b60405180910390f35b34801561009157600080fd5b5061009a610141565b6040516100a79190610660565b60405180910390f35b3480156100bc57600080fd5b506100c5610165565b005b3480156100d357600080fd5b506100dc610303565b6040516100e99190610739565b60405180910390f35b6100fa610391565b005b34801561010857600080fd5b50610123600480360381019061011e919061078c565b6104cf565b6040516101309190610660565b60405180910390f35b600047905090565b60008054906101000a900473ffffffffffffffffffffffffffffffffffffffff1681565b60008054906101000a900473ffffffffffffffffffffffffffffffffffffffff1673ffffffffffffffffffffffffffffffffffffffff163373ffffffffffffffffffffffffffffffffffffffff16146101f3576040517f08c379a00000000000000000000000000000000000000000000000000000000081526004016101ea9061083c565b60405180910390fd5b600060018054905061020361050e565b61020d919061088b565b9050600060018281548110610225576102246108bc565b5b9060005260206000200160009054906101000a900473ffffffffffffffffffffffffffffffffffffffff16905060008190508073ffffffffffffffffffffffffffffffffffffffff166108fc479081150290604051600060405180830381858888f1935050505015801561029d573d6000803e3d6000fd5b50600067ffffffffffffffff8111156102b9576102b86108eb565b5b6040519080825280602002602001820160405280156102e75781602001602082028036833780820191505090505b50600190805190602001906102fd929190610544565b50505050565b6060600180548060200260200160405190810160405280929190818152602001828054801561038757602002820191906000526020600020905b8160009054906101000a900473ffffffffffffffffffffffffffffffffffffffff1673ffffffffffffffffffffffffffffffffffffffff168152602001906001019080831161033d575b5050505050905090565b67016345785d8a000034116103db576040517f08c379a00000000000000000000000000000000000000000000000000000000081526004016103d290610966565b60405180910390fd5b60008054906101000a900473ffffffffffffffffffffffffffffffffffffffff1673ffffffffffffffffffffffffffffffffffffffff163373ffffffffffffffffffffffffffffffffffffffff16141561046a576040517f08c379a0000000000000000000000000000000000000000000000000000000008152600401610461906109d2565b60405180910390fd5b6001339080600181540180825580915050600190039060005260206000200160009091909190916101000a81548173ffffffffffffffffffffffffffffffffffffffff021916908373ffffffffffffffffffffffffffffffffffffffff160217905550565b600181815481106104df57600080fd5b906000526020600020016000915054906101000a900473ffffffffffffffffffffffffffffffffffffffff1681565b60004842600160405160200161052693929190610b31565b6040516020818303038152906040528051906020012060001c905090565b8280548282559060005260206000209081019282156105bd579160200282015b828111156105bc5782518260006101000a81548173ffffffffffffffffffffffffffffffffffffffff021916908373ffffffffffffffffffffffffffffffffffffffff16021790555091602001919060010190610564565b5b5090506105ca91906105ce565b5090565b5b808211156105e75760008160009055506001016105cf565b5090565b6000819050919050565b6105fe816105eb565b82525050565b600060208201905061061960008301846105f5565b92915050565b600073ffffffffffffffffffffffffffffffffffffffff82169050919050565b600061064a8261061f565b9050919050565b61065a8161063f565b82525050565b60006020820190506106756000830184610651565b92915050565b600081519050919050565b600082825260208201905092915050565b6000819050602082019050919050565b6106b08161063f565b82525050565b60006106c283836106a7565b60208301905092915050565b6000602082019050919050565b60006106e68261067b565b6106f08185610686565b93506106fb83610697565b8060005b8381101561072c57815161071388826106b6565b975061071e836106ce565b9250506001810190506106ff565b5085935050505092915050565b6000602082019050818103600083015261075381846106db565b905092915050565b600080fd5b610769816105eb565b811461077457600080fd5b50565b60008135905061078681610760565b92915050565b6000602082840312156107a2576107a161075b565b5b60006107b084828501610777565b91505092915050565b600082825260208201905092915050565b7f4f6e6c7920746865206d616e616765722063616e2063616c6c2074686973206660008201527f756e6374696f6e00000000000000000000000000000000000000000000000000602082015250565b60006108266027836107b9565b9150610831826107ca565b604082019050919050565b6000602082019050818103600083015261085581610819565b9050919050565b7f4e487b7100000000000000000000000000000000000000000000000000000000600052601260045260246000fd5b6000610896826105eb565b91506108a1836105eb565b9250826108b1576108b061085c565b5b828206905092915050565b7f4e487b7100000000000000000000000000000000000000000000000000000000600052603260045260246000fd5b7f4e487b7100000000000000000000000000000000000000000000000000000000600052604160045260246000fd5b7f4d696e696d756d20656e7472792066656520697320302e312065746865720000600082015250565b6000610950601e836107b9565b915061095b8261091a565b602082019050919050565b6000602082019050818103600083015261097f81610943565b9050919050565b7f4d616e616765722063616e277420656e746572206c6f74746572792100000000600082015250565b60006109bc601c836107b9565b91506109c782610986565b602082019050919050565b600060208201905081810360008301526109eb816109af565b9050919050565b6000819050919050565b610a0d610a08826105eb565b6109f2565b82525050565b600081549050919050565b600081905092915050565b60008190508160005260206000209050919050565b610a478161063f565b82525050565b6000610a598383610a3e565b60208301905092915050565b60008160001c9050919050565b600073ffffffffffffffffffffffffffffffffffffffff82169050919050565b6000610aa5610aa083610a65565b610a72565b9050919050565b6000610ab88254610a92565b9050919050565b6000600182019050919050565b6000610ad782610a13565b610ae18185610a1e565b9350610aec83610a29565b8060005b83811015610b2457610b0182610aac565b610b0b8882610a4d565b9750610b1683610abf565b925050600181019050610af0565b5085935050505092915050565b6000610b3d82866109fc565b602082019150610b4d82856109fc565b602082019150610b5d8284610acc565b915081905094935050505056fea2646970667358221220fc0a758eab17accc55f90ed97b478038b45ff477baba9539439ccded5009ed8664736f6c634300080b0033",
  "immutableReferences": {},
  "source": "// SPDX-License-Identifier: MIT\r\npragma solidity ^0.8.11;\r\n\r\ncontract Lottery {\r\n    address public manager;\r\n    address[] public players;\r\n\r\n    constructor() {\r\n        manager = msg.sender;\r\n    }\r\n\r\n    modifier restricted() {\r\n        require(msg.sender == manager, \"Only the manager can call this function\");\r\n        _;\r\n    }\r\n\r\n    function enter() public payable {\r\n        require(msg.value > 0.1 ether, \"Minimum entry fee is 0.1 ether\");\r\n        require(msg.sender!=manager, \"Manager can't enter lottery!\");\r\n        players.push(msg.sender);\r\n    }\r\n\r\n    function getPlayers() public view returns (address[] memory) {\r\n        return players;\r\n    }\r\n\r\n    function getBalance() public view returns (uint) {\r\n        return address(this).balance;\r\n    }\r\n\r\n    function random() private view returns (uint) {\r\n    return uint(keccak256(abi.encodePacked(block.basefee, block.timestamp, players)));\r\n    }\r\n    \r\n    function pickWinner() public restricted {\r\n        uint index = random() % players.length;\r\n        address winner = players[index];\r\n        address payable winnerPayable = payable(winner);\r\n        winnerPayable.transfer(address(this).balance);\r\n        players = new address[](0);\r\n    }\r\n    \r\n}\r\n",
  "sourcePath": "C:\\Users\\Harsh\\Desktop\\GitUpload\\Lottery dApp Ethereum\\smart_contract\\contracts\\Lottery.sol",
  "compiler": {
    "name": "solc",
    "version": "0.8.11+commit.d7f03943.Emscripten.clang"
  },
  "schemaVersion": "3.4.14",
  "updatedAt": "2023-10-25T22:17:13.935Z",
  "networkType": "ethereum",
  "devdoc": {
    "kind": "dev",
    "methods": {},
    "version": 1
  },
  "userdoc": {
    "kind": "user",
    "methods": {},
    "version": 1
  }
}